{
  "contractName": "Example",
  "abi": [
    {
      "constant": true,
      "inputs": [],
      "name": "totalPeople",
      "outputs": [
        {
          "name": "",
          "type": "uint256"
        }
      ],
      "payable": false,
      "stateMutability": "view",
      "type": "function"
    },
    {
      "constant": true,
      "inputs": [],
      "name": "queerPeople",
      "outputs": [
        {
          "name": "",
          "type": "uint256"
        }
      ],
      "payable": false,
      "stateMutability": "view",
      "type": "function"
    },
    {
      "constant": true,
      "inputs": [
        {
          "name": "",
          "type": "uint256"
        }
      ],
      "name": "people",
      "outputs": [
        {
          "name": "",
          "type": "address"
        }
      ],
      "payable": false,
      "stateMutability": "view",
      "type": "function"
    },
    {
      "constant": true,
      "inputs": [],
      "name": "nonBinaryPeople",
      "outputs": [
        {
          "name": "",
          "type": "uint256"
        }
      ],
      "payable": false,
      "stateMutability": "view",
      "type": "function"
    },
    {
      "constant": true,
      "inputs": [
        {
          "name": "",
          "type": "address"
        }
      ],
      "name": "personInfo",
      "outputs": [
        {
          "name": "name",
          "type": "string"
        },
        {
          "name": "genderIdentity",
          "type": "string"
        },
        {
          "name": "sexualOrientation",
          "type": "string"
        },
        {
          "name": "amountBet",
          "type": "uint256"
        },
        {
          "name": "numberSelected",
          "type": "uint256"
        }
      ],
      "payable": false,
      "stateMutability": "view",
      "type": "function"
    },
    {
      "constant": true,
      "inputs": [],
      "name": "allyPeople",
      "outputs": [
        {
          "name": "",
          "type": "uint256"
        }
      ],
      "payable": false,
      "stateMutability": "view",
      "type": "function"
    },
    {
      "inputs": [
        {
          "name": "_minimumBet",
          "type": "uint256"
        }
      ],
      "payable": false,
      "stateMutability": "nonpayable",
      "type": "constructor"
    },
    {
      "payable": true,
      "stateMutability": "payable",
      "type": "fallback"
    },
    {
      "constant": false,
      "inputs": [],
      "name": "kill",
      "outputs": [],
      "payable": false,
      "stateMutability": "nonpayable",
      "type": "function"
    },
    {
      "constant": true,
      "inputs": [
        {
          "name": "person",
          "type": "address"
        }
      ],
      "name": "personExists",
      "outputs": [
        {
          "name": "",
          "type": "bool"
        }
      ],
      "payable": false,
      "stateMutability": "view",
      "type": "function"
    },
    {
      "constant": true,
      "inputs": [
        {
          "name": "a",
          "type": "string"
        },
        {
          "name": "b",
          "type": "string"
        }
      ],
      "name": "sameABIPackedStrings",
      "outputs": [
        {
          "name": "",
          "type": "bool"
        }
      ],
      "payable": false,
      "stateMutability": "pure",
      "type": "function"
    },
    {
      "constant": false,
      "inputs": [
        {
          "name": "numberSelected",
          "type": "uint256"
        }
      ],
      "name": "bet",
      "outputs": [],
      "payable": true,
      "stateMutability": "payable",
      "type": "function"
    },
    {
      "constant": false,
      "inputs": [],
      "name": "generateNumberWinner",
      "outputs": [],
      "payable": false,
      "stateMutability": "nonpayable",
      "type": "function"
    }
  ],
  "bytecode": "0x6080604052601460045534801561001557600080fd5b50604051602080610f4383398101806040528101908080519060200190929190505050336000806101000a81548173ffffffffffffffffffffffffffffffffffffffff021916908373ffffffffffffffffffffffffffffffffffffffff16021790555060008114151561008a57806001819055505b50610ea98061009a6000396000f3006080604052600436106100af576000357c0100000000000000000000000000000000000000000000000000000000900463ffffffff1680630a50e361146100b1578063186e7f00146100c857806341c0e1b5146100f35780634d9acfc01461010a5780637365870b146101d15780638052e6c6146101f15780639e7a13ad1461021c578063ebc0e0fb14610289578063ebd58e60146102e4578063fb113db11461030f578063fd4679ee146104b1575b005b3480156100bd57600080fd5b506100c66104dc565b005b3480156100d457600080fd5b506100dd6104fc565b6040518082815260200191505060405180910390f35b3480156100ff57600080fd5b50610108610502565b005b34801561011657600080fd5b506101b7600480360381019080803590602001908201803590602001908080601f0160208091040260200160405190810160405280939291908181526020018383808284378201915050505050509192919290803590602001908201803590602001908080601f0160208091040260200160405190810160405280939291908181526020018383808284378201915050505050509192919290505050610593565b604051808215151515815260200191505060405180910390f35b6101ef60048036038101908080359060200190929190505050610744565b005b3480156101fd57600080fd5b506102066108b5565b6040518082815260200191505060405180910390f35b34801561022857600080fd5b50610247600480360381019080803590602001909291905050506108bb565b604051808273ffffffffffffffffffffffffffffffffffffffff1673ffffffffffffffffffffffffffffffffffffffff16815260200191505060405180910390f35b34801561029557600080fd5b506102ca600480360381019080803573ffffffffffffffffffffffffffffffffffffffff1690602001909291905050506108f9565b604051808215151515815260200191505060405180910390f35b3480156102f057600080fd5b506102f9610947565b6040518082815260200191505060405180910390f35b34801561031b57600080fd5b50610350600480360381019080803573ffffffffffffffffffffffffffffffffffffffff16906020019092919050505061094d565b60405180806020018060200180602001868152602001858152602001848103845289818151815260200191508051906020019080838360005b838110156103a4578082015181840152602081019050610389565b50505050905090810190601f1680156103d15780820380516001836020036101000a031916815260200191505b50848103835288818151815260200191508051906020019080838360005b8381101561040a5780820151818401526020810190506103ef565b50505050905090810190601f1680156104375780820380516001836020036101000a031916815260200191505b50848103825287818151815260200191508051906020019080838360005b83811015610470578082015181840152602081019050610455565b50505050905090810190601f16801561049d5780820380516001836020036101000a031916815260200191505b509850505050505050505060405180910390f35b3480156104bd57600080fd5b506104c6610b4b565b6040518082815260200191505060405180910390f35b60006001600a438115156104ec57fe5b060190506104f981610b51565b50565b60065481565b6000809054906101000a900473ffffffffffffffffffffffffffffffffffffffff1673ffffffffffffffffffffffffffffffffffffffff163373ffffffffffffffffffffffffffffffffffffffff161415610591576000809054906101000a900473ffffffffffffffffffffffffffffffffffffffff1673ffffffffffffffffffffffffffffffffffffffff16ff5b565b6000816040516020018082805190602001908083835b6020831015156105ce57805182526020820191506020810190506020830392506105a9565b6001836020036101000a0380198251168184511680821785525050505050509050019150506040516020818303038152906040526040518082805190602001908083835b6020831015156106375780518252602082019150602081019050602083039250610612565b6001836020036101000a038019825116818451168082178552505050505050905001915050604051809103902060001916836040516020018082805190602001908083835b6020831015156106a1578051825260208201915060208101905060208303925061067c565b6001836020036101000a0380198251168184511680821785525050505050509050019150506040516020818303038152906040526040518082805190602001908083835b60208310151561070a57805182526020820191506020810190506020830392506106e5565b6001836020036101000a03801982511681845116808217855250505050505090500191505060405180910390206000191614905092915050565b61074d336108f9565b15151561075957600080fd5b6001811015801561076b5750600a8111155b151561077657600080fd5b600154341015151561078757600080fd5b34600a60003373ffffffffffffffffffffffffffffffffffffffff1673ffffffffffffffffffffffffffffffffffffffff1681526020019081526020016000206003018190555080600a60003373ffffffffffffffffffffffffffffffffffffffff1673ffffffffffffffffffffffffffffffffffffffff1681526020019081526020016000206004018190555060036000815480929190600101919050555060053390806001815401808255809150509060018203906000526020600020016000909192909190916101000a81548173ffffffffffffffffffffffffffffffffffffffff021916908373ffffffffffffffffffffffffffffffffffffffff160217905550503460026000828254019250508190555060045460035414156108b2576108b16104dc565b5b50565b60085481565b6005818154811015156108ca57fe5b906000526020600020016000915054906101000a900473ffffffffffffffffffffffffffffffffffffffff1681565b600080600a60008473ffffffffffffffffffffffffffffffffffffffff1673ffffffffffffffffffffffffffffffffffffffff16815260200190815260200160002060030154119050919050565b60075481565b600a602052806000526040600020600091509050806000018054600181600116156101000203166002900480601f0160208091040260200160405190810160405280929190818152602001828054600181600116156101000203166002900480156109f95780601f106109ce576101008083540402835291602001916109f9565b820191906000526020600020905b8154815290600101906020018083116109dc57829003601f168201915b505050505090806001018054600181600116156101000203166002900480601f016020809104026020016040519081016040528092919081815260200182805460018160011615610100020316600290048015610a975780601f10610a6c57610100808354040283529160200191610a97565b820191906000526020600020905b815481529060010190602001808311610a7a57829003601f168201915b505050505090806002018054600181600116156101000203166002900480601f016020809104026020016040519081016040528092919081815260200182805460018160011615610100020316600290048015610b355780601f10610b0a57610100808354040283529160200191610b35565b820191906000526020600020905b815481529060010190602001808311610b1857829003601f168201915b5050505050908060030154908060040154905085565b60095481565b610b59610dc0565b6000806000806000809450600093505b600580549050841015610cda57600584815481101515610b8557fe5b9060005260206000200160009054906101000a900473ffffffffffffffffffffffffffffffffffffffff16925086600a60008573ffffffffffffffffffffffffffffffffffffffff1673ffffffffffffffffffffffffffffffffffffffff168152602001908152602001600020600401541415610c4b57828686601481101515610c0b57fe5b602002019073ffffffffffffffffffffffffffffffffffffffff16908173ffffffffffffffffffffffffffffffffffffffff168152505084806001019550505b600a60008473ffffffffffffffffffffffffffffffffffffffff1673ffffffffffffffffffffffffffffffffffffffff16815260200190815260200160002060008082016000610c9b9190610de4565b600182016000610cab9190610de4565b600282016000610cbb9190610de4565b6003820160009055600482016000905550508380600101945050610b69565b6000600581610ce99190610e2c565b506014600254811515610cf857fe5b049150600090505b84811015610db757600073ffffffffffffffffffffffffffffffffffffffff168682601481101515610d2e57fe5b602002015173ffffffffffffffffffffffffffffffffffffffff16141515610daa578581601481101515610d5e57fe5b602002015173ffffffffffffffffffffffffffffffffffffffff166108fc839081150290604051600060405180830381858888f19350505050158015610da8573d6000803e3d6000fd5b505b8080600101915050610d00565b50505050505050565b61028060405190810160405280601490602082028038833980820191505090505090565b50805460018160011615610100020316600290046000825580601f10610e0a5750610e29565b601f016020900490600052602060002090810190610e289190610e58565b5b50565b815481835581811115610e5357818360005260206000209182019101610e529190610e58565b5b505050565b610e7a91905b80821115610e76576000816000905550600101610e5e565b5090565b905600a165627a7a72305820a5f22627e603bd5bb1369667a4b9dd6428bd68c2b350ee9b6b5df2722f932fe60029",
  "source": "pragma solidity 0.4.24;\n\n// external = visible to other contracts and cannot be called internally\n// public = visisble to this contract, contracts derived from this contract, and any other contracts\n// internal = visible to this contract and derived contracts\n// private = visible to this contract only\n\n// view functions promise not to modify the state\n// pure functions promise not to read from or modify the state\n\ncontract Example {\n  address private owner;\n  uint256 internal minimumBet;\n  uint256 internal totalBet;\n  uint256 internal numberOfBets;\n  uint256 internal maxAmountOfBets = 20;\n  address[] public people;\n  uint256 public totalPeople;\n  uint256 public nonBinaryPeople;\n  uint256 public queerPeople;\n  uint256 public allyPeople;\n\n  struct Person {\n    string name;\n    string genderIdentity;\n    string sexualOrientation;\n    uint256 amountBet;\n    uint256 numberSelected;\n  }\n\n  mapping(address => Person) public personInfo;\n\n  constructor(uint256 _minimumBet) public {\n    owner = msg.sender;\n    if(_minimumBet != 0) minimumBet = _minimumBet;\n  }\n\n  function kill() public {\n    if(msg.sender == owner) selfdestruct(owner);\n  }\n\n  function personExists(address person) public view returns(bool) {\n    // a person exists if their amountBet is greater than 0\n    return (personInfo[person].amountBet > 0);\n  }\n\n  function sameABIPackedStrings(string a, string b) public pure returns(bool) {\n    // careful with this for hash collisions\n    return keccak256(abi.encodePacked(a)) == keccak256(abi.encodePacked(b));\n  }\n\n  // EXAMPLE\n  function bet(uint256 numberSelected) public payable {\n    require(!personExists(msg.sender));\n    require(numberSelected >= 1 && numberSelected <= 10);\n    require(msg.value >= minimumBet);\n\n    personInfo[msg.sender].amountBet = msg.value;\n    personInfo[msg.sender].numberSelected = numberSelected;\n    numberOfBets++;\n    people.push(msg.sender);\n    totalBet += msg.value;\n\n    if(numberOfBets == maxAmountOfBets) generateNumberWinner();\n  }\n  function generateNumberWinner() public {\n    uint256 numberGenerated = block.number % 10 + 1;\n    distributePrizes(numberGenerated);\n  }\n  function distributePrizes(uint256 numberWinner) private {\n    address[20] memory winners;\n    uint256 count = 0;\n    for(uint256 i = 0; i < people.length; i++){\n      address personAddress = people[i];\n      if(personInfo[personAddress].numberSelected == numberWinner){\n        winners[count] = personAddress;\n        count++;\n      }\n      delete personInfo[personAddress];\n    }\n    people.length = 0;\n    uint256 winnerEtherAmount = totalBet / winners.length;\n    for(uint256 j = 0; j < count; j++){\n      if(winners[j] != address(0))\n      winners[j].transfer(winnerEtherAmount);\n    }\n  }\n  // END EXAMPLE\n\n  // Fallback\n  function() public payable { }\n\n}\n",
  "sourcePath": "/Users/val/Documents/Popchain/code/queery/contracts/Example.sol",
  "compiler": {
    "name": "solc",
    "version": "0.4.24+commit.e67f0147.Emscripten.clang"
  },
  "schemaVersion": "2.0.1",
  "updatedAt": "2018-07-09T17:24:16.128Z"
}