{
  "contractName": "Queery",
  "abi": [
    {
      "constant": true,
      "inputs": [],
      "name": "queerPeople",
      "outputs": [
        {
          "name": "",
          "type": "uint256"
        }
      ],
      "payable": false,
      "stateMutability": "view",
      "type": "function"
    },
    {
      "constant": true,
      "inputs": [
        {
          "name": "",
          "type": "uint256"
        }
      ],
      "name": "people",
      "outputs": [
        {
          "name": "",
          "type": "address"
        }
      ],
      "payable": false,
      "stateMutability": "view",
      "type": "function"
    },
    {
      "constant": true,
      "inputs": [
        {
          "name": "",
          "type": "uint256"
        }
      ],
      "name": "betters",
      "outputs": [
        {
          "name": "",
          "type": "address"
        }
      ],
      "payable": false,
      "stateMutability": "view",
      "type": "function"
    },
    {
      "constant": true,
      "inputs": [],
      "name": "betCount",
      "outputs": [
        {
          "name": "",
          "type": "uint8"
        }
      ],
      "payable": false,
      "stateMutability": "view",
      "type": "function"
    },
    {
      "constant": true,
      "inputs": [],
      "name": "nonBinaryPeople",
      "outputs": [
        {
          "name": "",
          "type": "uint256"
        }
      ],
      "payable": false,
      "stateMutability": "view",
      "type": "function"
    },
    {
      "constant": true,
      "inputs": [],
      "name": "betPool",
      "outputs": [
        {
          "name": "",
          "type": "uint256"
        }
      ],
      "payable": false,
      "stateMutability": "view",
      "type": "function"
    },
    {
      "constant": true,
      "inputs": [
        {
          "name": "",
          "type": "address"
        }
      ],
      "name": "personInfo",
      "outputs": [
        {
          "name": "twitterID",
          "type": "string"
        },
        {
          "name": "name",
          "type": "string"
        },
        {
          "name": "genderIdentity",
          "type": "string"
        },
        {
          "name": "sexualOrientation",
          "type": "string"
        },
        {
          "name": "exists",
          "type": "uint256"
        }
      ],
      "payable": false,
      "stateMutability": "view",
      "type": "function"
    },
    {
      "constant": true,
      "inputs": [],
      "name": "allyPeople",
      "outputs": [
        {
          "name": "",
          "type": "uint256"
        }
      ],
      "payable": false,
      "stateMutability": "view",
      "type": "function"
    },
    {
      "inputs": [],
      "payable": false,
      "stateMutability": "nonpayable",
      "type": "constructor"
    },
    {
      "payable": true,
      "stateMutability": "payable",
      "type": "fallback"
    },
    {
      "constant": false,
      "inputs": [],
      "name": "kill",
      "outputs": [],
      "payable": false,
      "stateMutability": "nonpayable",
      "type": "function"
    },
    {
      "constant": true,
      "inputs": [
        {
          "name": "personAddress",
          "type": "address"
        }
      ],
      "name": "personExists",
      "outputs": [
        {
          "name": "",
          "type": "bool"
        }
      ],
      "payable": false,
      "stateMutability": "view",
      "type": "function"
    },
    {
      "constant": false,
      "inputs": [
        {
          "name": "twitterID",
          "type": "string"
        },
        {
          "name": "name",
          "type": "string"
        },
        {
          "name": "genderIdentity",
          "type": "string"
        },
        {
          "name": "sexualOrientation",
          "type": "string"
        }
      ],
      "name": "registerPerson",
      "outputs": [],
      "payable": false,
      "stateMutability": "nonpayable",
      "type": "function"
    },
    {
      "constant": false,
      "inputs": [
        {
          "name": "twitterID",
          "type": "string"
        },
        {
          "name": "name",
          "type": "string"
        },
        {
          "name": "genderIdentity",
          "type": "string"
        },
        {
          "name": "sexualOrientation",
          "type": "string"
        }
      ],
      "name": "bet",
      "outputs": [],
      "payable": true,
      "stateMutability": "payable",
      "type": "function"
    }
  ],
  "bytecode": "0x608060405234801561001057600080fd5b50336000806101000a81548173ffffffffffffffffffffffffffffffffffffffff021916908373ffffffffffffffffffffffffffffffffffffffff160217905550611814806100606000396000f3006080604052600436106100ba576000357c0100000000000000000000000000000000000000000000000000000000900463ffffffff16806341c0e1b5146100bc5780637d2c6e56146100d35780638052e6c61461020e5780639e7a13ad146102395780639fda5d62146102a6578063cf09449714610313578063d9e67bae14610344578063ebc0e0fb14610472578063ebd58e60146104cd578063ec90bfc7146104f8578063fb113db114610523578063fd4679ee1461072a575b005b3480156100c857600080fd5b506100d1610755565b005b3480156100df57600080fd5b5061020c600480360381019080803590602001908201803590602001908080601f0160208091040260200160405190810160405280939291908181526020018383808284378201915050505050509192919290803590602001908201803590602001908080601f0160208091040260200160405190810160405280939291908181526020018383808284378201915050505050509192919290803590602001908201803590602001908080601f0160208091040260200160405190810160405280939291908181526020018383808284378201915050505050509192919290803590602001908201803590602001908080601f01602080910402602001604051908101604052809392919081815260200183838082843782019150505050505091929192905050506107e6565b005b34801561021a57600080fd5b50610223610b5e565b6040518082815260200191505060405180910390f35b34801561024557600080fd5b5061026460048036038101908080359060200190929190505050610b64565b604051808273ffffffffffffffffffffffffffffffffffffffff1673ffffffffffffffffffffffffffffffffffffffff16815260200191505060405180910390f35b3480156102b257600080fd5b506102d160048036038101908080359060200190929190505050610ba2565b604051808273ffffffffffffffffffffffffffffffffffffffff1673ffffffffffffffffffffffffffffffffffffffff16815260200191505060405180910390f35b34801561031f57600080fd5b50610328610bd7565b604051808260ff1660ff16815260200191505060405180910390f35b610470600480360381019080803590602001908201803590602001908080601f0160208091040260200160405190810160405280939291908181526020018383808284378201915050505050509192919290803590602001908201803590602001908080601f0160208091040260200160405190810160405280939291908181526020018383808284378201915050505050509192919290803590602001908201803590602001908080601f0160208091040260200160405190810160405280939291908181526020018383808284378201915050505050509192919290803590602001908201803590602001908080601f0160208091040260200160405190810160405280939291908181526020018383808284378201915050505050509192919290505050610bea565b005b34801561047e57600080fd5b506104b3600480360381019080803573ffffffffffffffffffffffffffffffffffffffff169060200190929190505050610f1c565b604051808215151515815260200191505060405180910390f35b3480156104d957600080fd5b506104e2610f6a565b6040518082815260200191505060405180910390f35b34801561050457600080fd5b5061050d610f70565b6040518082815260200191505060405180910390f35b34801561052f57600080fd5b50610564600480360381019080803573ffffffffffffffffffffffffffffffffffffffff169060200190929190505050610f76565b604051808060200180602001806020018060200186815260200185810385528a818151815260200191508051906020019080838360005b838110156105b657808201518184015260208101905061059b565b50505050905090810190601f1680156105e35780820380516001836020036101000a031916815260200191505b50858103845289818151815260200191508051906020019080838360005b8381101561061c578082015181840152602081019050610601565b50505050905090810190601f1680156106495780820380516001836020036101000a031916815260200191505b50858103835288818151815260200191508051906020019080838360005b83811015610682578082015181840152602081019050610667565b50505050905090810190601f1680156106af5780820380516001836020036101000a031916815260200191505b50858103825287818151815260200191508051906020019080838360005b838110156106e85780820151818401526020810190506106cd565b50505050905090810190601f1680156107155780820380516001836020036101000a031916815260200191505b50995050505050505050505060405180910390f35b34801561073657600080fd5b5061073f61120c565b6040518082815260200191505060405180910390f35b6000809054906101000a900473ffffffffffffffffffffffffffffffffffffffff1673ffffffffffffffffffffffffffffffffffffffff163373ffffffffffffffffffffffffffffffffffffffff1614156107e4576000809054906101000a900473ffffffffffffffffffffffffffffffffffffffff1673ffffffffffffffffffffffffffffffffffffffff16ff5b565b83600c60003373ffffffffffffffffffffffffffffffffffffffff1673ffffffffffffffffffffffffffffffffffffffff168152602001908152602001600020600001908051906020019061083c929190611743565b5082600c60003373ffffffffffffffffffffffffffffffffffffffff1673ffffffffffffffffffffffffffffffffffffffff1681526020019081526020016000206001019080519060200190610893929190611743565b5081600c60003373ffffffffffffffffffffffffffffffffffffffff1673ffffffffffffffffffffffffffffffffffffffff16815260200190815260200160002060020190805190602001906108ea929190611743565b5080600c60003373ffffffffffffffffffffffffffffffffffffffff1673ffffffffffffffffffffffffffffffffffffffff1681526020019081526020016000206003019080519060200190610941929190611743565b506015600c60003373ffffffffffffffffffffffffffffffffffffffff1673ffffffffffffffffffffffffffffffffffffffff1681526020019081526020016000206004018190555060013390806001815401808255809150509060018203906000526020600020016000909192909190916101000a81548173ffffffffffffffffffffffffffffffffffffffff021916908373ffffffffffffffffffffffffffffffffffffffff1602179055505060001515610a33836040805190810160405280600381526020017f6369730000000000000000000000000000000000000000000000000000000000815250611212565b15151415610a4e576009600081548092919060010191905055505b60001515610a91826040805190810160405280600881526020017f7374726169676874000000000000000000000000000000000000000000000000815250611212565b15151415610aac57600a600081548092919060010191905055505b60011515610aef836040805190810160405280600381526020017f6369730000000000000000000000000000000000000000000000000000000000815250611212565b1515148015610b40575060011515610b3c826040805190810160405280600881526020017f7374726169676874000000000000000000000000000000000000000000000000815250611212565b1515145b15610b5857600b600081548092919060010191905055505b50505050565b600a5481565b600181815481101515610b7357fe5b906000526020600020016000915054906101000a900473ffffffffffffffffffffffffffffffffffffffff1681565b600281600581101515610bb157fe5b016000915054906101000a900473ffffffffffffffffffffffffffffffffffffffff1681565b600760009054906101000a900460ff1681565b6000610c06856020604051908101604052806000815250611212565b151515610c1257600080fd5b610c1b336113c3565b151515610c2757600080fd5b600034111515610c3657600080fd5b610c3f33610f1c565b1515610c5257610c51858585856107e6565b5b346008600082825401925050819055506005600760009054906101000a900460ff1660ff16101515610c9157600760006101000a81549060ff02191690555b336002600760009054906101000a900460ff1660ff16600581101515610cb357fe5b0160006101000a81548173ffffffffffffffffffffffffffffffffffffffff021916908373ffffffffffffffffffffffffffffffffffffffff1602179055506007600081819054906101000a900460ff168092919060010191906101000a81548160ff021916908360ff16021790555050600c60003373ffffffffffffffffffffffffffffffffffffffff1673ffffffffffffffffffffffffffffffffffffffff16815260200190815260200160002090503373ffffffffffffffffffffffffffffffffffffffff1660026004600581101515610d8c57fe5b0160009054906101000a900473ffffffffffffffffffffffffffffffffffffffff1673ffffffffffffffffffffffffffffffffffffffff161415610f1557610f14610f0f826002018054600181600116156101000203166002900480601f016020809104026020016040519081016040528092919081815260200182805460018160011615610100020316600290048015610e685780601f10610e3d57610100808354040283529160200191610e68565b820191906000526020600020905b815481529060010190602001808311610e4b57829003601f168201915b5050505050836003018054600181600116156101000203166002900480601f016020809104026020016040519081016040528092919081815260200182805460018160011615610100020316600290048015610f055780601f10610eda57610100808354040283529160200191610f05565b820191906000526020600020905b815481529060010190602001808311610ee857829003601f168201915b5050505050611459565b611620565b5b5050505050565b600080600c60008473ffffffffffffffffffffffffffffffffffffffff1673ffffffffffffffffffffffffffffffffffffffff16815260200190815260200160002060040154119050919050565b60095481565b60085481565b600c602052806000526040600020600091509050806000018054600181600116156101000203166002900480601f0160208091040260200160405190810160405280929190818152602001828054600181600116156101000203166002900480156110225780601f10610ff757610100808354040283529160200191611022565b820191906000526020600020905b81548152906001019060200180831161100557829003601f168201915b505050505090806001018054600181600116156101000203166002900480601f0160208091040260200160405190810160405280929190818152602001828054600181600116156101000203166002900480156110c05780601f10611095576101008083540402835291602001916110c0565b820191906000526020600020905b8154815290600101906020018083116110a357829003601f168201915b505050505090806002018054600181600116156101000203166002900480601f01602080910402602001604051908101604052809291908181526020018280546001816001161561010002031660029004801561115e5780601f106111335761010080835404028352916020019161115e565b820191906000526020600020905b81548152906001019060200180831161114157829003601f168201915b505050505090806003018054600181600116156101000203166002900480601f0160208091040260200160405190810160405280929190818152602001828054600181600116156101000203166002900480156111fc5780601f106111d1576101008083540402835291602001916111fc565b820191906000526020600020905b8154815290600101906020018083116111df57829003601f168201915b5050505050908060040154905085565b600b5481565b6000816040516020018082805190602001908083835b60208310151561124d5780518252602082019150602081019050602083039250611228565b6001836020036101000a0380198251168184511680821785525050505050509050019150506040516020818303038152906040526040518082805190602001908083835b6020831015156112b65780518252602082019150602081019050602083039250611291565b6001836020036101000a038019825116818451168082178552505050505050905001915050604051809103902060001916836040516020018082805190602001908083835b60208310151561132057805182526020820191506020810190506020830392506112fb565b6001836020036101000a0380198251168184511680821785525050505050509050019150506040516020818303038152906040526040518082805190602001908083835b6020831015156113895780518252602082019150602081019050602083039250611364565b6001836020036101000a03801982511681845116808217855250505050505090500191505060405180910390206000191614905092915050565b600080600090505b600481101561144e578273ffffffffffffffffffffffffffffffffffffffff166002826005811015156113fa57fe5b0160009054906101000a900473ffffffffffffffffffffffffffffffffffffffff1673ffffffffffffffffffffffffffffffffffffffff1614156114415760019150611453565b80806001019150506113cb565b600091505b50919050565b60008060019050600015156114a3856040805190810160405280600381526020017f6369730000000000000000000000000000000000000000000000000000000000815250611212565b15151480156114c05750600060156009548115156114bd57fe5b06145b156114ce5780806001019150505b60001515611511846040805190810160405280600881526020017f7374726169676874000000000000000000000000000000000000000000000000815250611212565b151514801561152e575060006015600a5481151561152b57fe5b06145b1561153c5780806001019150505b6001151561157f856040805190810160405280600381526020017f6369730000000000000000000000000000000000000000000000000000000000815250611212565b15151480156115d05750600115156115cc846040805190810160405280600881526020017f7374726169676874000000000000000000000000000000000000000000000000815250611212565b1515145b80156115ea575060006015600b548115156115e757fe5b06145b156115f85780806001019150505b600060154381151561160657fe5b0614156116165780806001019150505b8091505092915050565b6000806000808460ff16340234019350600854925060009150600090508284101515611654576008600090558291506116f5565b83600860008282540392505081905550600854905060018080805490500381548110151561167e57fe5b9060005260206000200160009054906101000a900473ffffffffffffffffffffffffffffffffffffffff1673ffffffffffffffffffffffffffffffffffffffff166108fc829081150290604051600060405180830381858888f193505050501580156116ee573d6000803e3d6000fd5b5080830391505b3373ffffffffffffffffffffffffffffffffffffffff166108fc839081150290604051600060405180830381858888f1935050505015801561173b573d6000803e3d6000fd5b505050505050565b828054600181600116156101000203166002900490600052602060002090601f016020900481019282601f1061178457805160ff19168380011785556117b2565b828001600101855582156117b2579182015b828111156117b1578251825591602001919060010190611796565b5b5090506117bf91906117c3565b5090565b6117e591905b808211156117e15760008160009055506001016117c9565b5090565b905600a165627a7a72305820164592115a026a1a497bd40759b8865b96aad81913d6b8f4b6311fea65ff91b70029",
  "source": "pragma solidity 0.4.24;\n\n// external = visible to other contracts and cannot be called internally\n// public = visisble to this contract, contracts derived from this contract, and any other contracts\n// internal = visible to this contract and derived contracts\n// private = visible to this contract only\n\n// view functions promise not to modify the state\n// pure functions promise not to read from or modify the state\n\ncontract Queery {\n  address private owner;\n  address[] public people;\n  address[5] public betters;\n  uint8 public betCount;\n  uint256 public betPool;\n  uint256 public nonBinaryPeople;\n  uint256 public queerPeople;\n  uint256 public allyPeople;\n\n  struct Person {\n    string twitterID;\n    string name;\n    string genderIdentity;\n    string sexualOrientation;\n    uint256 exists;\n  }\n\n  mapping(address => Person) public personInfo;\n\n  constructor() public {\n    owner = msg.sender;\n  }\n\n  function kill() public {\n    if(msg.sender == owner) selfdestruct(owner);\n  }\n\n  function sameABIPackedStrings(string a, string b) internal pure returns(bool) {\n    return keccak256(abi.encodePacked(a)) == keccak256(abi.encodePacked(b)); // careful with this for hash collisions\n  }\n\n  function isBetter(address personAddress) internal view returns(bool) {\n    for(uint256 i = 0; i < 4; i++) {\n      if(betters[i] == personAddress) return true;\n    }\n    return false;\n  }\n\n  function personExists(address personAddress) public view returns(bool) {\n     return (personInfo[personAddress].exists > 0);\n  }\n\n  function registerPerson(\n    string twitterID,\n    string name,\n    string genderIdentity,\n    string sexualOrientation\n    ) public {\n      // create a new person with the input values\n      personInfo[msg.sender].twitterID = twitterID;\n      personInfo[msg.sender].name = name;\n      personInfo[msg.sender].genderIdentity = genderIdentity;\n      personInfo[msg.sender].sexualOrientation = sexualOrientation;\n      personInfo[msg.sender].exists = 21;\n      people.push(msg.sender);\n      if(sameABIPackedStrings(genderIdentity, 'cis') == false) nonBinaryPeople++;\n      if(sameABIPackedStrings(sexualOrientation, 'straight') == false) queerPeople++;\n      if((sameABIPackedStrings(genderIdentity, 'cis') == true)\n      && (sameABIPackedStrings(sexualOrientation, 'straight') == true)\n      ) allyPeople++;\n  }\n\n  function calculateMultiplier(\n    string genderIdentity,\n    string sexualOrientation\n    ) internal view returns(uint8) {\n      uint8 multiplier = 1;\n      if((sameABIPackedStrings(genderIdentity, 'cis') == false)\n      && (nonBinaryPeople % 21 == 0)) multiplier++;\n      if((sameABIPackedStrings(sexualOrientation, 'straight') == false)\n      && (queerPeople % 21 == 0)) multiplier++;\n      if((sameABIPackedStrings(genderIdentity, 'cis') == true)\n      && (sameABIPackedStrings(sexualOrientation, 'straight') == true)\n      && (allyPeople % 21 == 0)\n      ) multiplier++;\n      if(block.number % 21 == 0) multiplier++;\n      return multiplier;\n  }\n\n  function payout(uint8 multiplier) private {\n    // 25\n    uint256 earnings = msg.value + (msg.value * multiplier);\n    // 300\n    uint256 maxPayout = betPool;\n    uint256 winnerPayout = 0;\n    uint256 leftoverPayout = 0;\n    if(earnings >= maxPayout) {\n      delete betPool;\n      winnerPayout = maxPayout;\n    } else {\n      betPool -= earnings;\n      leftoverPayout = betPool;\n      people[people.length-1].transfer(leftoverPayout);\n      winnerPayout = maxPayout - leftoverPayout;\n    }\n    msg.sender.transfer(winnerPayout);\n  }\n\n  function bet(\n    string twitterID,\n    string name,\n    string genderIdentity,\n    string sexualOrientation\n    ) public payable {\n      // must have a twitterID\n      require(!sameABIPackedStrings(twitterID, \"\"));\n      // must not be a better yet\n      require(!isBetter(msg.sender));\n      // must have a bet\n      require(msg.value > 0);\n      // register new ppl\n      if(!personExists(msg.sender)) registerPerson(twitterID, name, genderIdentity, sexualOrientation);\n      // add this bet to the pool of available funds to pull from\n      betPool += msg.value;\n      // check if we have reached max\n      if(betCount >= 5) delete betCount;\n      // add this person to betters list\n      betters[betCount] = msg.sender;\n      // increase number of bets to count this person\n      betCount++;\n      Person storage POI = personInfo[msg.sender];\n      // if this person is the 21st better, payout\n      if(betters[4] == msg.sender) payout(calculateMultiplier(POI.genderIdentity, POI.sexualOrientation));\n  } // bet\n\n  // Fallback\n  function() public payable { }\n\n} // Queery\n",
  "sourcePath": "/Users/val/Documents/Popchain/code/queery/contracts/Queery.sol",
  "compiler": {
    "name": "solc",
    "version": "0.4.24+commit.e67f0147.Emscripten.clang"
  },
  "schemaVersion": "2.0.1",
  "updatedAt": "2018-07-09T17:26:42.033Z"
}